:100000000C9454050C947C050C947C050C947C0594
:100010000C947C050C947C050C947C050C947C055C
:100020000C947C050C947C050C947C050C947C054C
:100030000C947C050C947C050C947C050C947C053C
:100040000C94BF190C947C050C948D190C946719B1
:100050000C947C050C947C050C947C050C947C051C
:100060000C94091A0C947C0500000000003E5B4FC4
:100070005B3E3E6B4F6B3E1C3E7C3E1C183C7E3C08
:10008000181C577D571C1C5E7F5E1C00183C180016
:10009000FFE7C3E7FF0018241800FFE7DBE7FF30A6
:1000A000483A060E2629792926407F050507407F14
:1000B00005253F5A3CE73C5A7F3E1C1C08081C1C87
:1000C0003E7F14227F22145F5F005F5F06097F017D
:1000D0007F006689956A606060606094A2FFA29468
:1000E00008047E040810207E201008082A1C080836
:1000F0001C2A08081E101010100C1E0C1E0C303884
:100100003E3830060E3E0E06000000000000005F84
:1001100000000007000700147F147F14242A7F2AA0
:100120001223130864623649562050000807030062
:10013000001C2241000041221C002A1C7F1C2A08AE
:10014000083E080800807030000808080808000011
:1001500060600020100804023E5149453E00427F85
:10016000400072494949462141494D331814127FD4
:100170001027454545393C4A494931412111090774
:100180003649494936464949291E000014000000F5
:1001900040340000000814224114141414140041C7
:1001A00022140802015909063E415D594E7C121184
:1001B000127C7F494949363E414141227F414141BC
:1001C0003E7F494949417F090909013E4141517337
:1001D0007F0808087F00417F41002040413F017FA8
:1001E000081422417F404040407F021C027F7F0470
:1001F00008107F3E4141413E7F090909063E4151B9
:10020000215E7F09192946264949493203017F01A8
:10021000033F4040403F1F2040201F3F4038403FA9
:10022000631408146303047804036159494D4300BF
:100230007F4141410204081020004141417F0402F6
:10024000010204404040404000030708002054548D
:1002500078407F284444383844444428384444286B
:100260007F385454541800087E090218A4A49C78BE
:100270007F0804047800447D40002040403D007F1A
:100280001028440000417F40007C047804787C08FA
:100290000404783844444438FC18242418182424CE
:1002A00018FC7C08040408485454542404043F44B3
:1002B000243C4040207C1C2040201C3C4030403CE2
:1002C00044281028444C9090907C4464544C440042
:1002D00008364100000077000000413608000201A6
:1002E0000204023C2623263C1EA1A161123A404092
:1002F000207A38545455592155557941225454780F
:1003000042215554784020545579400C1E527212A7
:100310003955555559395454545939555454580030
:1003200000457C410002457D420001457C407D1234
:1003300011127DF0282528F07C5455450020545496
:100340007C547C0A097F4932494949323A44444441
:100350003A324A4848303A4141217A3A424020787C
:10036000009DA0A07D3D4242423D3D4040403D3C7D
:1003700024FF2424487E4943662B2FFC2F2BFF09A2
:1003800029F620C0887E0903205454794100004496
:100390007D413048484A32384040227A007A0A0A81
:1003A000727D0D19317D2629292F282629292926F4
:1003B00030484D4020380808080808080808382F39
:1003C00010C8ACBA2F102834FA00007B00000814C3
:1003D0002A142222142A14085500550055AA55AA99
:1003E00055AAFF55FF55FF000000FF00101010FF39
:1003F00000141414FF001010FF00FF1010F010F094
:10040000141414FC001414F700FF0000FF00FF1484
:1004100014F404FC141417101F10101F101F1414D0
:10042000141F00101010F0000000001F101010101A
:100430001F10101010F010000000FF10101010100E
:1004400010101010FF10000000FF140000FF00FF4C
:1004500000001F10170000FC04F4141417101714E8
:1004600014F404F40000FF00F7141414141414140A
:10047000F700F7141414171410101F101F1414147D
:10048000F4141010F010F000001F101F0000001FE7
:1004900014000000FC140000F010F01010FF10FF1A
:1004A000141414FF141010101F00000000F010FFAF
:1004B000FFFFFFFFF0F0F0F0F0FFFFFF0000000093
:1004C00000FFFF0F0F0F0F0F3844443844FC4A4A17
:1004D0004A347E02020606027E027E0263554941CC
:1004E000633844443C04407E201E2006027E020203
:1004F00099A5E7A5991C2A492A1C4C7201724C3017
:100500004A4D4D303048784830BC625A463D3E49ED
:100510004949007E0101017E2A2A2A2A2A44445F91
:10052000444440514A444040444A51400000FF0185
:1005300003E080FF000008086B6B08361236243693
:10054000060F090F060000181800000010100030F8
:1005500040FF0101001F01011E00191D1712003C80
:100560003C3C3C0000000000000103070F1F3F7FE0
:100570000080C0E0F0F8FCFE000000002300260030
:100580002900000000080002010000030407000029
:1005900000000000000000000000240027002A00E6
:1005A000DB40A4A62EAF2000A1C8D300408DAED55D
:1005B00080A80102040810204080010204081020D5
:1005C00001020408102000000000250028002B0074
:1005D00004040404040404040202020202020303E9
:1005E000030303030000600000000000000000009F
:1005F0000000000000E0000000000000000000001B
:1006000000000001E0000000000000000000000009
:10061000000001F0000000000000000000000000E9
:100620000003F000000000000000000000000000D7
:1006300007F00000000000000000000000000007BC
:10064000F8000000000000000000000000000FF8AB
:1006500000000003C0007E000001E0007F0FF800F2
:10066000000003C000FE000001E000FFEFF8000002
:100670000003C000FE000001E000FFFFF8000000E2
:1006800003C000F00000000F007FFE7FC0000003E9
:10069000C000F00000000F003FFE7FF83FF1FBCFED
:1006A000FCFEF3BC3DEFE01FFE7FFF7FFBFFDFFEA4
:1006B000FEFFBC3DEFE01FC6FFFF7FFBFFDFFEFE3E
:1006C000FFBC3DEFE00FE3C7FE787BC3DE1EF0FF0B
:1006D000BC3DEF0007FF87FC787BC3DE1EF0F83CD3
:1006E0003DEF0001FFFFF0007BC3C01EF0F03C3D7A
:1006F000EF0001F37FE03FFBC3CFFEF0F03C3DEFA6
:100700000003E33F807FFBC3DFFEF0F03C3DEF00E2
:1007100007E73C00787BC3DE1EF0F03C3DEF0007AE
:10072000FFBE00787BC3DE1EF0F03C3DEF0007FF0C
:10073000FE00787BC3DE1EF0F03C3DEF000FFFFEB5
:10074000007FFBFFDFFEF0F03FFDEFE00FFFFF005B
:100750007FFBFFDFFEF0F03FFDEFE00FF9FF003E13
:1007600079F9CF9EF0F01F3DE7E01FF1FF00000098
:100770000000000000000000001F80FF007FFFFF5E
:10078000FFFFFFFFFFFFFFE01C007F007FFFFFFF79
:10079000FEB46D888D18E000001F007FFFFFFFFE94
:1007A00095AD7DB577E000000F007FFFFFFFFEA550
:1007B000AD9D8D19E0000006007FFFFFFFFEB5AD87
:1007C000EDB57EE0000000000001800000000000A8
:1007D000000000000380000000000000000000078F
:1007E000C000000000000000000007C00000000082
:1007F00000000000000FC00000000000000000002A
:100800001FE00000000000000000001FE0000000EA
:100810000000000000003FE00000000000000000B9
:10082000003FF00000000000000000007FF000002A
:1008300000000000001FF87FF00000000000000032
:100840003FFE7FF0000000000000003FFF7FF0004F
:100850000000000000001FFFFBE00000000000009F
:10086000000FFFF9FFC00000000000000FFFF9FFBC
:10087000F800000000000007FFF1FFFF000000008B
:10088000000003FC73FFFF80000000000001FE3F3A
:10089000FFFF80000000000000FF1E0FFF000000AF
:1008A000000000007FFE1FFC000000000000003F71
:1008B000FFFFF8000000000000000FDFFFE0000075
:1008C00000000000001F19FFC00000000000000031
:1008D0003F3CFF00000000000000007E7CF80000AC
:1008E0000000000000007FFE7C000000000000000F
:1008F00000FFFFFC0000000000000000FFFFFE0002
:1009000000000000000000FFFFFE000000000000EB
:100910000001FFEFFE0000000000000001FFCFFE1D
:100920000000000000000003FF07FE0000000000C0
:10093000000003FC07FE0000000000000003F003BD
:10094000FE00000000000000018000FE000000002A
:100950000000000000007E00000000000000000019
:10096000003E000000000000000000000C0000003D
:10097000000000078000FC000003C00000000780AA
:1009800001FC000003C0000000078001FC00000320
:10099000C0000000078001E00000001E000000070A
:1009A0008001E00000001E007FE3F79FF9FDE7787B
:1009B0007BDFC0FFF7FFBFFDFDFF787BDFC0FFF7E8
:1009C000FFBFFDFDFF787BDFC0F0F787BC3DE1FF97
:1009D000787BDE00F0F787BC3DE1F0787BDE00003D
:1009E000F787803DE1E0787BDE007FF7879FFDE1C0
:1009F000E0787BDE00FFF787BFFDE1E0787BDE007B
:100A0000F0F787BC3DE1E0787BDE00F0F787BC3D86
:100A1000E1E0787BDE00F0F787BC3DE1E0787BDE4B
:100A200000FFF7FFBFFDE1E07FFBDFC0FFF7FFBF87
:100A3000FDE1E07FFBDFC07CF3F39F3DE1E03E7B27
:100A4000CFC00000000000000000000000FFFFFF1A
:100A5000FFFFFFFFFFFFFFC0FFFFFFFFFD68DB1190
:100A60001A31C0FFFFFFFFFD2B5AFB6AEFC0FFFFEB
:100A7000FFFFFD4B5B3B1A33C0FFFFFFFFFD6B5BCE
:100A8000DB6AFDC05353443133303620616C6C6FE8
:100A9000636174696F6E206661696C656400220031
:100AA000FF210000281BCB2511241FBECFEFD8E06B
:100AB000DEBFCDBF11E0A0E0B1E0EEE4FFE402C094
:100AC00005900D92A83EB107D9F724E0A8EEB1E059
:100AD00001C01D92A930B207E1F715E0C3E5D5E0EA
:100AE00004C02197FE010E942C26C235D107C9F708
:100AF0000E943D1C0C949A270C940000089596E0E7
:100B0000899FD0011124A65BBC4F90967C936E9375
:100B10005F9791E091969C939197E091B703F09144
:100B2000B8039091B603992339F0309751F08111B1
:100B300008C0809166030994309719F05C968C91F7
:100B4000FACF0895CF92DF92EF92FF920F931F9307
:100B500096E0899FF0011124E65BFC4F11A2278DDE
:100B600030A12130310551F178F02230310509F4FE
:100B700051C02330310509F452C01F910F91FF90ED
:100B8000EF90DF90CF9008956623B9F361E070E0B5
:100B90000E947F052FB7F8948091A5029091A6023C
:100BA000A091A702B091A8022FBF8093A2039093B7
:100BB000A303A093A403B093A503DFCF9FB7F8943A
:100BC000C090A502D090A602E090A702F090A802E3
:100BD0009FBF0091A2031091A3032091A403309121
:100BE000A503C01AD10AE20AF30A0091B4031091D6
:100BF000B50330E020E00C151D052E053F0550F42F
:100C000062E070E01F910F91FF90EF90DF90CF9026
:100C10000C947F056111B1CF63E070E0F3CF70E019
:100C200060E0F0CF08950895AF92BF92CF92DF9227
:100C3000EF92FF920F931F93CF93DF936C017B0191
:100C40008B01040F151FEB015E01AE18BF08C01722
:100C5000D10759F06991D601ED91FC910190F08195
:100C6000E02DC6010995892B79F7C501DF91CF9158
:100C70001F910F91FF90EF90DF90CF90BF90AF90BA
:100C80000895FC01538D448D252F30E0842F90E092
:100C9000821B930B541710F0CF9608950197089577
:100CA000FC01918D828D981761F0A28DAE0FBF2F40
:100CB000B11D5D968C91928D9F5F9F73928F90E096
:100CC00008958FEF9FEF0895FC01918D828D981705
:100CD00031F0828DE80FF11D858D90E008958FEF42
:100CE0009FEF0895FC01918D228D892F90E0805C0B
:100CF0009F4F821B91098F73992708958DEA92E087
:100D00000E94720621E0892B09F420E0822F0895C9
:100D100080E090E0892B29F00E947E0681110C94DE
:100D200000000895FC01A48DA80FB92FB11DA35A8E
:100D3000BF4F2C91848D90E001968F739927848FFB
:100D4000A689B7892C93A089B1898C91837080641E
:100D50008C93938D848D981306C00288F389E02DBF
:100D600080818F7D80830895EF92FF920F931F9370
:100D7000CF93DF93EC0181E0888F9B8D8C8D98134E
:100D80001AC0E889F989808185FF15C09FB7F8945A
:100D9000EE89FF896083E889F989808183708064A6
:100DA00080839FBF81E090E0DF91CF911F910F91F1
:100DB000FF90EF900895F62E0B8D10E00F5F1F4F00
:100DC0000F731127E02E8C8D8E110CC00FB607FC0F
:100DD000FACFE889F989808185FFF5CFCE010E949D
:100DE0009206F1CFEB8DEC0FFD2FF11DE35AFF4F73
:100DF000F0829FB7F8940B8FEA89FB89808180622B
:100E0000CFCFCF93DF93EC01888D8823B9F0AA89E7
:100E1000BB89E889F9898C9185FD03C0808186FDB5
:100E20000DC00FB607FCF7CF8C9185FFF2CF808104
:100E300085FFEDCFCE010E949206E9CFDF91CF91E1
:100E40000895833081F028F4813099F08230A9F040
:100E500008958730A9F08830C9F08430B1F48091CA
:100E600080008F7D03C0809180008F778093800009
:100E7000089584B58F7784BD089584B58F7DFBCFA9
:100E80008091B0008F778093B00008958091B0007A
:100E90008F7DF9CFCF93DF93282F30E0F901EE5704
:100EA000FA4F8491F901EE54FA4FD491F901E053CD
:100EB000FA4FC491CC23A1F081110E942107EC2F9D
:100EC000F0E0EE0FFF1FE858FA4FA591B491EC91B6
:100ED000ED2381E090E009F480E0DF91CF91089567
:100EE00080E090E0FACF862F0C944A071F93CF93AF
:100EF000DF93282F30E0F901EE57FA4F8491F90182
:100F0000EE54FA4FD491F901E053FA4FC491CC2337
:100F1000A9F0162F81110E942107EC2FF0E0EE0FAF
:100F2000FF1FEA53FA4FA591B4918FB7F894EC9153
:100F3000111108C0D095DE23DC938FBFDF91CF91D4
:100F40001F910895DE2BF8CF862F642F0C9476071F
:100F5000CF93DF9390E0FC01EE54FA4F249180533D
:100F60009A4FFC0184918823C9F090E0880F991F63
:100F7000FC01EA56FA4FA591B491FC01EA53FA4FED
:100F8000C591D49161110DC09FB7F8948C912095B3
:100F900082238C938881282328839FBFDF91CF9160
:100FA0000895623051F49FB7F8943C91822F809558
:100FB00083238C93E8812E2BEFCF8FB7F894EC919D
:100FC0002E2B2C938FBFEACF862F642F0C94A8076B
:100FD0003FB7F8948091990290919A02A0919B0258
:100FE000B0919C0226B5A89B05C02F3F19F0019631
:100FF000A11DB11D3FBFBA2FA92F982F8827BC0173
:10100000CD01620F711D811D911D42E0660F771F9A
:10101000881F991F4A95D1F708958F929F92AF929A
:10102000BF92CF92DF92EF92FF924B015C010E9440
:10103000E8076B017C010E94E8076C197D098E09A5
:101040009F09683E734081059105A8F321E0821A4B
:101050009108A108B10888EEC80E83E0D81EE11CF3
:10106000F11C81149104A104B10429F7FF90EF90C1
:10107000DF90CF90BF90AF909F908F9008950F9387
:101080001F93FC019181691738F5491728F570E025
:10109000499F600D711D11248B01072E000C220B3E
:1010A000330B83E036952795179507958A95D1F7E9
:1010B0000580F681E02DE00FF11F808190E06095C2
:1010C00070956770772702C0959587956A95E2F7C6
:1010D00081701F910F91089580E0FBCF0F931F93B4
:1010E000FC01162FA42F2081318142815381B0E071
:1010F0000E943226610F711D811D911D8B019C0183
:1011000083E036952795179507958A95D1F7068040
:10111000F781E02DE00FF11F208130E060957095A0
:1011200067707727C90102C0959587956A95E2F7A0
:1011300081701F910F9108952F923F924F925F926D
:101140006F927F928F929F92AF92BF92CF92DF92D7
:10115000EF92FF920F931F93CF93DF9300D000D0B5
:1011600000D0CDB7DEB75C014B01542EDC016C9092
:10117000C12CD12C7601E42FF0E0FA83E98303E05F
:1011800010E02BEA422E33E0332ECC82C614C8F096
:1011900026960FB6F894DEBF0FBECDBFDF91CF917C
:1011A0001F910F91FF90EF90DF90CF90BF90AF9085
:1011B0009F908F907F906F905F904F903F902F9077
:1011C00008952C2C26941B828C8180958170782E1A
:1011D0004C816B81C4010E946E08E82F811152C0BE
:1011E000F7E0F515A8F0E981FA81E750F74F0C9484
:1011F0002C26010907094E09580965096C0983095C
:101200009609EB812C81E20FE095E17001C0E72D9A
:10121000D5016D917D918D919C91A70196010E94C0
:10122000DA25AB01BC01BB814B0F511D611D711D46
:101230009A01209530952770332781E090E0022EA7
:1012400001C0880F0A94EAF793E076956795579561
:1012500047959A95D1F7D50116960D90BC91A02D82
:10126000BE83AD83A40FB51F3C91432F50E002C055
:10127000559547952A95E2F74170E41709F46AC03D
:10128000832B8C93BB81BF5FBB83B61508F4A0CFC3
:10129000EFEFCE1ADE0AEE0AFE0A77CF8B81632DBE
:1012A0000E94EA25E1E0992309F4B2CFE0E0B0CF53
:1012B000AB818A2F90E08C0D9D1DB8010E94F62510
:1012C000E1E0892B09F4A4CFF1CFBB81B49DE12DDE
:1012D0001124E695E20D98CFEB812E2F30E02C9D66
:1012E000C0012D9D900D3C9D900D11249C012170FD
:1012F0003327B8010E94F625280F391FE1E0232B80
:1013000009F486CFD3CFFB818F2F90E08C9DF00125
:101310008D9DF00D9C9DF00D1124CF01B8010E9410
:10132000F625E80FF91FE095F0956FCF8B81282FF8
:1013300030E02C9DC0012D9D900D3C9D900D112401
:10134000B8010E94F625EB81AC81EA0FE80FF92F76
:10135000F11DE9CF8095832394CFCF93DF93FC01D8
:10136000D62FA42FC22F2081318142815381B0E03A
:101370000E943226AB01BC014D0F511D611D711D34
:101380009A01209530952770332781E090E001C0C5
:10139000880F2A95EAF793E07695679557954795D4
:1013A0009A95D1F70680F781E02DE40FF51F208193
:1013B000CC2329F0822B8083DF91CF9108958095F3
:1013C0008223F9CFEF92FF920F93CF93DF937B01AC
:1013D000C42FD22F202F4D2F6C2F0E94AD0921E05A
:1013E0004D2F6C2FC701DF91CF910F91FF90EF90A0
:1013F0000C94AD094F925F926F927F928F929F9261
:10140000AF92BF92CF92DF92EF92FF920F931F9312
:10141000CF93DF93EC017B01188188E0489F400166
:101420001124822A092C000CAA08BB08D501C4018A
:10143000FAE0CF2ED12C2C013D01440C551C661C2A
:10144000771C9C01AD01E9E05695479537952795A6
:10145000EA95D1F7A7E3B5E00E943226DC01CB0183
:1014600084259525A625B72521E0C21AD10819F7AC
:10147000240135016AE0440C551C661C771C6A95F2
:10148000D1F7482A592A6A2A7B2A82E1482684E52C
:101490005826B12CA12CD301C2010A2C04C0B69548
:1014A000A795979587950A94D2F7082F01702A2D52
:1014B00048E0B701CE010E94E2092FEFA21AB20A5A
:1014C00086E0A816B10439F7D301C20126E0B6952B
:1014D000A795979587952A95D1F7082F017027E052
:1014E00048E0B701CE010E94E209D301C20137E012
:1014F000B695A795979587953A95D1F7082F0170DE
:1015000028E048E0B701CE010E94E209052D0170F4
:1015100028E047E0B701CE010E94E20949E0A42E8D
:10152000B12C55E0952ED301C2010A2C04C0B6950A
:10153000A795979587950A94D2F7082F017028E010
:10154000492DB701CE010E94E2099A942FEFA21A09
:10155000B20A8FEF9812E7CFBB24B394D301C20134
:101560000C2C04C0B695A795979587950A94D2F749
:10157000082F0170412F4B1928E0B701CE010E94BE
:10158000E2092FEFC21AD20AB39489E0B812E6CF6B
:1015900088E0C82ED12C97E0B92ED301C2010C2CC3
:1015A00004C0B695A795979587950A94D2F7082F0A
:1015B0000170212F2B1948E0B701CE010E94E209EA
:1015C000BA942FEFC21AD20AB110E7CF28EF210F39
:1015D00001E048E0B701CE010E94E209DF91CF911E
:1015E0001F910F91FF90EF90DF90CF90BF90AF9041
:1015F0009F908F907F906F905F904F9008952F9263
:101600003F924F925F926F927F928F929F92AF9292
:10161000BF92CF92DF92EF92FF920F931F93CF93DF
:10162000DF9300D000D000D0CDB7DEB73C015B0126
:10163000342E122FFC01C0804CEF5FEF5E834D8390
:10164000832C912CD12C422E512C8CEFE82EFF2490
:10165000FA948D819E81840D951D9A8389832D80B6
:10166000210EED81FE81F195E195F109FC83EB837B
:10167000C4018E0D9F1D97FD26C08C159D051CF580
:1016800089819A818C159D05F0F4C701F7FE04C08D
:10169000882799278E199F092D813E8137FF02C027
:1016A0002B813C81821793070CF4C901823019F019
:1016B00001E0843009F400E0222D432D4E0DB501E8
:1016C000C3010E94E2099FEFE91AF90AE5E0EE166C
:1016D000F10471F64D815E814F5F5F4F5E834D83F4
:1016E0004530510509F0B1CF26960FB6F894DEBF0C
:1016F0000FBECDBFDF91CF911F910F91FF90EF9063
:10170000DF90CF90BF90AF909F908F907F906F9021
:101710005F904F903F902F9008954F925F926F92FD
:101720007F928F929F92AF92BF92CF92DF92EF9271
:10173000FF92CF93DF93DC012150CD90DD90ED90AF
:10174000FC901397912C812CA22E022E000CBB082A
:10175000C6018095909527FF14C0CD92DD92ED9241
:10176000FC921397DF91CF91FF90EF90DF90CF9095
:10177000BF90AF909F908F907F906F905F904F90B1
:1017800008952601370133E076946794579447947F
:101790003A95D1F71696ED91FC911797E40DF51D4A
:1017A000E501C819D9092A013B0104C07694679460
:1017B00057944794CA95D2F731E0432255246624C2
:1017C0007724EC01C819D909C770DD2704C0440C7F
:1017D000551C661C771CCA95D2F73081432A40827B
:1017E00021503FEFC31AD30AE30AF30A3FEF831AEB
:1017F000930AB1CFE0EDE80FEA3010F48E2F089590
:101800009FEB980F9A3110F48753089580528B31D3
:1018100030F4E82FF0E0E25EFE4F808108958FEF14
:101820000895EF92FF920F931F93CF93DF93EC01F4
:10183000EC80FD806E157F050CF070C057FF04C072
:10184000240F351F50E040E08E819F81FA01E20FA6
:10185000F31F8E179F071CF49C01241B350B1216D7
:1018600013060CF05BC0922F842F86958695869583
:101870008E9DD0018F9DB00D11246A0F7B1FAF8DFF
:10188000B8A1A60FB71F477049F188E0841B482F05
:10189000682F70E0FB01E059FA4FE491281708F037
:1018A00063C0621B71092FEF30E002C035952795A8
:1018B0006A95E2F7E2230130110539F0B0F1023008
:1018C000110561F58C91E82702C08C91E82BEC930F
:1018D000941720F12C813D81A20FB31FE92FE41B47
:1018E000E83078F00230110521F58E2F9C9190950B
:1018F0009C932C813D81A20FB31F88508830B0F794
:10190000E770EE2359F0F0E0E859FA4FE491013026
:101910001105F9F010F10230110519F1DF91CF91A5
:101920001F910F91FF90EF900895E0958C91E8231F
:10193000CECF81E00115110509F480E081959E2F3D
:101940008C932C813D81A20FB31F98509830C0F723
:10195000D7CF8C91E82BEC93E1CFE0958C91E823E5
:10196000FACF8C91E827F7CF0130110509F4ADCFFC
:10197000E0F20230110509F4A5CFAE0DBF1DAECFC8
:101980000F931F93CF93DF9377FF04C0260F371F6A
:1019900070E060E0DC011496CD91DC91FB01E20F78
:1019A000F31FCE17DF071CF49E01261B370B121600
:1019B00013064CF5FA0157FD3796A3E0F595E79528
:1019C000AA95E1F7EC9FD001ED9FB00DFC9FB00D03
:1019D00011246A0F7B1FDC015F96ED91FC91E60FED
:1019E000F71F4770552781E090E001C0880F4A95A6
:1019F000EAF7482F0130110559F0A8F02E0F3F1FCC
:101A000002301105E1F0DF91CF911F910F91089500
:101A10002E0F3F1FE217F307B1F38191DF011197FA
:101A2000842B8C93F7CF80952E0F3F1FE217F3077F
:101A300051F39191DF01119798239C93F7CFE2170F
:101A4000F30709F38191DF01119784278C93F7CF76
:101A50000F931F93FA01DC0156964C915697423032
:101A6000E9F04330A1F1413061F514964D915C915C
:101A7000DA01AE1BBF0BFD01E21BF30B77FD0BC0C0
:101A8000DC0116964D915C916417750724F4AB0147
:101A9000BF010E94C00C1F910F91089514964D91A3
:101AA0005C91DA01A61BB70BBD0161507109DC0125
:101AB00016964D915C91DA01AE1BBF0BFD01E21B46
:101AC000F30B77FDE8CFAF010E94110CE4CF16961F
:101AD0004D915C91DA01A61BB70BBD0161507109F4
:101AE000CDCF0F931F93FA01DC0156964C91569778
:101AF0004230A9F0433091F1413019F514964D91DF
:101B00005C91DA01AE1BBF0BFD013197F7FD04C0FC
:101B1000AB01BF010E94110C1F910F910895149603
:101B20004D915C91DA01A61BB70BBD01DC01169645
:101B30004D915C91DA01AE1BBF0BFD013197621B29
:101B4000730BF7FDE9CFDC0116964D915C91E4171C
:101B5000F50714F7AF010E94C00CDECF16964D9129
:101B60005C91DA01A61BB70BBD01621B730BCECFD4
:101B7000FC0177FD64C080859185681779070CF0BA
:101B80005EC057FD5CC082859385481759070CF0ED
:101B900056C086898230B1F0833029F1813041F41A
:101BA00084819581841B950BAB01BC016150710947
:101BB0002130310509F108F443C02230310509F420
:101BC00063C0089584819581DC01A61BB70BBD011C
:101BD0006150710986819781DC01A41BB50BAD01B1
:101BE00041505109E5CF86819781861B970BBA0139
:101BF000AC0141505109DCCFCA0157FD0796A3E063
:101C000095958795AA95E1F7A481B5818A9F900162
:101C10008B9F300D9A9F300D1124620F731F078C1C
:101C2000F0A1E02DE60FF71F4770552721E030E0C7
:101C300001C0220F4A95EAF78081822B80830895A4
:101C4000CA0157FD079633E0959587953A95E1F7D8
:101C5000A481B5818A9F90018B9F300D9A9F300D92
:101C60001124620F731F078CF0A1E02DE60FF71F00
:101C70004770552781E090E001C0880F4A95EAF748
:101C8000809590818923DACFCA0157FD079623E01A
:101C9000959587952A95E1F7A481B5818A9F900152
:101CA0008B9F300D9A9F300D1124620F731F078C8C
:101CB000F0A1E02DE60FF71F4770552721E030E037
:101CC00001C0220F4A95EAF780818227B7CF089595
:101CD0008EBD00000DB407FEFDCF8EB508958CBDFE
:101CE0009DBD08950895FC016370668B8481958184
:101CF00026813781613039F0633029F09187808700
:101D000033872287089531872087938782870895B4
:101D10002F923F924F925F926F927F928F929F92FB
:101D2000AF92BF92CF92DF92EF92FF920F931F93E9
:101D3000CF93DF93CDB7DEB76A970FB6F894DEBFC7
:101D40000FBECDBF9A8F898F7A8369834A01D22EC5
:101D500018870F833701BC2CDC0159962D913C91DB
:101D60005A972115310509F015C118968D919C914E
:101D70001997681779070CF0D7C11A968D919C9125
:101D8000481759070CF0D0C14C2C512CB6E0CB9E13
:101D9000600D711D11247C876B87161617060CF0D9
:101DA000C3C1EA2DF0E0FA87E98793E0EE0FFF1F49
:101DB0009A95E1F7F88BEF87CF01840F951F1816DE
:101DC00019060CF0B1C1A98DBA8D58968C9181116C
:101DD00004C0BFEABD1508F4D394A98DBA8DED9166
:101DE000FC9111970284F385E02DCD010995B5E0B2
:101DF000DB9EC0011124E981FA81FC83EB83312C45
:101E0000212C9C0128593F4F388F2F8B4A2D50E0B1
:101E10005E8B4D8BEF89F88DE20DF31D44919E8210
:101E20008D82D12CC12C69817A81620D731D7A8BD0
:101E3000698B842F90E09C8B8B8BE98DFA8DA08130
:101E4000B18140FF82C0F1E0BF126FC0AF126DC020
:101E50001C96ED91FC912F813885A4014C0D5D1DE0
:101E600069897A89898D9A8D0995EB89FC89F5951F
:101E7000E7954E2F5FEFC51AD50A6D817E818D895A
:101E80009E89680F791F7E836D8398E0C916D104FF
:101E900081F6AFEF2A1A3A0AEB81FC81E40DF51DB9
:101EA000FC83EB83F5E02F16310409F0B3CF2F81CB
:101EB000388526153705B9F0A98DBA8DED91FC91BD
:101EC000B1E0BB1257C0AB1255C069817A816B5F1C
:101ED0007F4F0088F189E02D830128E030E0A401E4
:101EE000898D9A8D0995A98DBA8DED91FC911197E7
:101EF0000688F789E02DCD016A960FB6F894DEBF0B
:101F00000FBECDBFDF91CF911F910F91FF90EF904A
:101F1000DF90CF90BF90AF909F908F907F906F9009
:101F20005F904F903F902F9009941E96ED91FC91F9
:101F3000EF80F88409851A8592014D815E816B815D
:101F40007C81898D9A8D099590CF2F8138852615B2
:101F5000370509F48ACF31E0B31207C0A31205C0D8
:101F60001C96ED91FC91930178CF1E96ED91FC911A
:101F70007301E0CF6B857C85641975090684F7854C
:101F8000E02D73010F8518899201A401898D9A8D26
:101F90000995A9CFF90134969491329745915491BE
:101FA000D91AB7E0DB9E400D511D1124F90125918E
:101FB00034913C8B2B8BFA0125903490FA013296A8
:101FC000749031963491398B329664903196449066
:101FD00041E04C1518F04A1508F07FC0662D062C1C
:101FE000000C770B7C836B83842D042C000C990BE5
:101FF0009E838D83A98DBA8DED91FC9111970284FA
:10200000F385E02DCD010995512CD12CC12CEA2D61
:10201000F0E0FA87E9872B2D30E03C872B87A4017D
:10202000440D511D47FC5A95588F4F8B69817A8119
:10203000660D711D67FC7A957E876D877989C71655
:1020400008F051CF2C2D30E04D815E81420F531F9F
:10205000A985BA854A9FC0014B9F900D5A9F900D4C
:102060001124FC01E80DF91DF88BEF87852D612CFB
:102070004F89588D420F531F5E8B4D8B671408F0AC
:1020800050C044244394480E877041F4C101019626
:10209000EB89FC89E20DF31DD4901C01D7FE19C019
:1020A000A98DBA8DED91FC91662D70E0B1E0BB1267
:1020B00019C0AB1217C02D853E85620F731F0484B3
:1020C000F585E02D2F8138854D895E89898D9A8D22
:1020D0000995DD0C6394842DD1CF1E821D821C8254
:1020E0001B8288CF4B815C81640F751FAB85BC85DB
:1020F0006A9FC0016B9F900D7A9F900D112469819A
:102100007A81680F791F0684F785E02DEF80F884C7
:1021100009851A859D014F855889898D9A8D099564
:10212000D8CF570CC3948ACF6A960FB6F894DEBF07
:102130000FBECDBFDF91CF911F910F91FF90EF9018
:10214000DF90CF90BF90AF909F908F907F906F90D7
:102150005F904F903F902F9008958F929F92AF92F3
:10216000CF92EF92FF920F931F93CF93DF93EC01E7
:10217000262F898D9A8D009709F051C06A30D1F4CD
:102180001D861C868D8948E0849F900111248E85D0
:102190009F85820F931F9F878E8781E090E0DF915C
:1021A000CF911F910F91FF90EF90CF90AF909F90A4
:1021B0008F9008956D3089F3CC88AD888F898823FE
:1021C000C1F08C859D8536E0C39E800D911D112444
:1021D000488559854817590764F44E855F851D86E3
:1021E0001C8638E0A39EC0011124840F951F9F8791
:1021F0008E87EA88FB88088919894E855F856C85FA
:102200007D85CE010E94880E2C898C859D8546E0B7
:10221000249F800D911D11249D878C87BECF6A302D
:1022200069F41D861C86FC013896E4912D898E8503
:102230009F85E29F800D911D1124ADCF6D3009F473
:10224000ACCFFC0134963491631708F4A6CF3296D4
:10225000E491E61708F4A1CFFC01329685909490A2
:10226000462F431B342F47E0349F800C911C1124D0
:10227000F401329634913196E4913323A9F1EE239F
:1022800099F1CC88F4013596E491AD884F894423C7
:1022900001F10E2E000CFF0BE30FF11DCE9EA001ED
:1022A000CF9E500D11246C857D85460F571F688584
:1022B0007985641775076CF44E855F851D861C86CD
:1022C000FC013896E491AE9E400D511D11245F87AC
:1022D0004E87EA88FB88088919894E855F856C8559
:1022E0007D85CE010E94880EF4013496E4912C89FC
:1022F0008C859D85E29F800D911D11248DCF6F925D
:102300007F928F929F92AF92BF92CF92DF92EF9285
:10231000FF920F931F93CF93DF93EC016B015A0150
:1023200039014801E881F9810284F385E02D09959E
:10233000E881F9810288F389E02D87019301A501E5
:10234000B601CE010995A501480D591D415051090D
:10235000E881F9810288F389E02D9301B601CE016D
:102360000995E881F9810088F189E02D9401A501A2
:10237000B601CE010995C60CD71CB6016150710992
:10238000E881F9810088F189E02D9401A501CE0151
:102390000995E881F9810688F789E02DCE01DF9162
:1023A000CF911F910F91FF90EF90DF90CF90BF9052
:1023B000AF909F908F907F906F9009946F927F92D3
:1023C0008F929F92AF92BF92CF92DF92EF92FF9245
:1023D0000F931F93CF93DF935C01EB016A014901D7
:1023E00038018701DC01ED91FC916217730719F543
:1023F000641675062CF0962D872D3A01C92ED82E1D
:102400009601261937092F5F3F4F048CF58DE02D7B
:10241000A301BE01C5010995DF91CF911F910F91D5
:10242000FF90EF90DF90CF90BF90AF909F908F90F4
:102430007F906F9008954615570591F4261737073A
:1024400024F0892D4B01C22FD82F9E01281939095C
:102450002F5F3F4F068CF78DE02DA601B401DACF38
:102460000284F385E02D0995D501ED91FC91048856
:10247000F589E02D83019401A601BE01C5010995EE
:10248000D501ED91FC910688F789E02DC501DF911A
:10249000CF911F910F91FF90EF90DF90CF90BF9061
:1024A000AF909F908F907F906F900994EF92FF92E2
:1024B0000F931F93DC011A960D911C911B97189690
:1024C0002D913C911997ED91FC9100A0F1A1E02D87
:1024D0007B0150E040E070E060E009951F910F91B2
:1024E000FF90EF9008954F925F926F927F928F923C
:1024F0009F92AF92BF92CF92DF92EF92FF920F9393
:102500001F93CF93DF936C012B015A0139014801CE
:10251000DC01ED91FC910284F385E02D0995E20147
:10252000640C751CD601ED91FC91C615D7055CF4C1
:102530000088F189E02D87019401A501BE01C60143
:1025400009952196EFCF0688F789E02DC601DF9126
:10255000CF911F910F91FF90EF90DF90CF90BF90A0
:10256000AF909F908F907F906F905F904F90099465
:102570008F929F92AF92BF92CF92DF92EF92FF9293
:102580000F931F93CF93DF93EC015B014A01690125
:10259000E881F9810284F385E02D099595012C0DE0
:1025A0003D1D21503109E881F9810488F589E02D2C
:1025B00078018401A401B501CE010995E881F98172
:1025C0000688F789E02DCE01DF91CF911F910F9101
:1025D000FF90EF90DF90CF90BF90AF909F908F9043
:1025E00009948F929F92AF92BF92CF92DF92EF9217
:1025F000FF920F931F93CF93DF93EC015B014A018E
:1026000069017801E881F9810284F385E02D09955B
:10261000C80CD91C860101501109E881F981048890
:10262000F589E02D9501A401B501CE010995E88158
:10263000F9810688F789E02DCE01DF91CF911F91B6
:102640000F91FF90EF90DF90CF90BF90AF909F9051
:102650008F900994EF92FF920F931F93DC01ED91FD
:10266000FC9100A0F1A1E02D09951F910F91FF9021
:10267000EF9008950F931F93DC01ED91FC91068C70
:10268000F78DE02D09951F910F9108950F931F93DA
:10269000DC01ED91FC91048CF58DE02D09951F91E5
:1026A0000F910895DC01ED91FC910084F185E02DFE
:1026B00009943F924F925F926F927F928F929F9276
:1026C000AF92BF92CF92DF92EF92FF920F931F9340
:1026D000CF93DF935C017B014A016901390187E0F7
:1026E000680E711C93E0759467949A95E1F72B013D
:1026F000400E511E10E000E0312CD0E0C0E0CE01D1
:1027000087709927330C892B59F4FE0183E0F595E6
:10271000E7958A95E1F7E00FF11FE80DF91D349078
:1027200037FE0AC021E030E0A701B5016C0F7D1F24
:1027300085EC93E00E9452132196CC16DD06F9F643
:102740008FEFE81AF80A060D171DE414F504A9F630
:10275000DF91CF911F910F91FF90EF90DF90CF907D
:10276000BF90AF909F908F907F906F905F904F90B1
:102770003F9008952F923F924F925F926F927F9277
:102780008F929F92AF92BF92CF92DF92EF92FF9281
:102790000F931F93CF93DF9300D000D000D0CDB71D
:1027A000DEB73C016A013E832D83FC82EB82580137
:1027B000A41AB50AB7FE03C0B194A194B1088D80E4
:1027C0009E80861A970A97FE03C09194819491087F
:1027D0008A149B045CF0902F812F0D811E819D83B4
:1027E0008E839C2D8D2D6B01692F782F0C151D0567
:1027F0005CF09D818E817E836D83692F782F902F71
:10280000812F8601C92ED82E1601201A310A2B01DC
:102810002D813E81421A530A57FE03C051944194C0
:102820005108710137FE03C03FEFE31AF30AF59434
:10283000E7948D819E81861797075CF5A1E0B0E053
:10284000BA83A983C016D1064CF1D301ED91FC9156
:102850000484F585E02D2B813C81A8016D817E816A
:102860008A149B041CF04D815E81B801C301099557
:10287000E418F508F7FE0AC02D813E8189819A810E
:10288000280F391F3E832D83E20CF31C0F5F1F4F6F
:10289000D9CF2FEF3FEF3A832983D4CF26960FB6B7
:1028A000F894DEBF0FBECDBFDF91CF911F910F9186
:1028B000FF90EF90DF90CF90BF90AF909F908F9060
:1028C0007F906F905F904F903F902F900895089564
:1028D00020914E02260F3327331F21323105ECF4AD
:1028E00020917202FC0190E080E0243069F082E0E7
:1028F0000895A0914E022191AC01425D5D4FA40F5D
:10290000B52FB11D2C930196861798F380914E0236
:10291000680F60934E0280E0089581E00895109260
:10292000720281E0809374021092730261E082E18E
:102930000E94760761E083E10E947607E9EBF0E010
:1029400080818E7F808380818D7F808388E48093E7
:10295000B80085E48093BC000895CF93DF9391E0A5
:1029600090932D028823B9F0C091B800D091BA009D
:102970008091BC008A7B8093BC0060E082E10E9471
:10298000760760E083E10E9476070E948F14D0935F
:10299000BA00C093B800DF91CF910895E091A302EF
:1029A0008091A202E81730F4F0E0E85FFD4F8081EB
:1029B00090E008958FEF9FEF08959091A30280918A
:1029C000A2022FEF3FEF981748F4E92FF0E0E85FFD
:1029D000FD4F208130E09F5F9093A302C9010895CD
:1029E0008091A2029091A302891B990B0895CF9226
:1029F000DF92EF92FF920F931F93CF93DF937C01AF
:102A0000CB018A012091AC02222389F0EB016B01FA
:102A1000C40ED51ECC15DD0569F06991D701ED9185
:102A2000FC910190F081E02DC7010995F3CF642F4F
:102A30000E946814C801DF91CF911F910F91FF9000
:102A4000EF90DF90CF900895CF93DF931F92CDB793
:102A5000DEB769832091AC022223F9F02091A9020C
:102A6000203258F021E030E0FC013383228390E0F3
:102A700080E00F90DF91CF9108958091AA02E82F16
:102A8000F0E0E851FE4F998190838F5F8093AA0216
:102A90008093A90281E090E0ECCF61E0CE01019645
:102AA0000E946814F7CFCF92DF92EF92FF920F93BC
:102AB0001F93CF93DF93D091A90281E0D13208F028
:102AC0009CC0C091AB020E94E8076B017C01809121
:102AD000720281116CC082E08093720281E0809367
:102AE00074028FEF8093710210929602D093950238
:102AF000A8EEB1E0E5E7F2E080E0D8138DC01092D7
:102B0000970280919702CC0FC82BC09397028091B7
:102B10007302813009F084C0109273020E94E807AA
:102B20006B017C01809197028093BB008091290208
:102B300090912A02A0912B02B0912C02892B8A2B12
:102B40008B2BA1F00E94E8070091290210912A0224
:102B500020912B0230912C026C197D098E099F095E
:102B6000061717072807390708F442C08091BC00F0
:102B700083FDD8CF85EC8093BC000E94E8076B01F1
:102B80007C0180917202823009F44CC08091710204
:102B90008F3F09F469C080917102803209F466C0E8
:102BA00080917102803309F463C084E026C0809173
:102BB000290290912A02A0912B02B0912C02892B1C
:102BC0008A2B8B2B09F483CF0E94E80700912902FE
:102BD00010912A0220912B0230912C026C197D0950
:102BE0008E099F09061717072807390708F06FCFC6
:102BF000809128020E94AD1485E01092AA021092E2
:102C0000A9021092AC02DF91CF911F910F91FF901A
:102C1000EF90DF90CF9008959D9191938F5F6DCF4E
:102C200085EEA9CF8091290290912A02A0912B02D2
:102C3000B0912C02892B8A2B8B2B09F4A2CF0E94F6
:102C4000E8070091290210912A0220912B0230916D
:102C50002C026C197D098E099F0906171707280792
:102C6000390708F08ECFC4CF80E0C7CF82E0C5CF50
:102C700083E0C3CFEF92FF920F931F93CF93DF9325
:102C80007C01C62F8091E2039091E303009709F441
:102C900059C02091E60331E03093AC022093AB029F
:102CA0001092AA021092A902DC01ED91FC91019010
:102CB000F081E02D60E009958701EE24E394F12C8A
:102CC000D1E0C1508091E2039091E303CF3F91F1B5
:102CD000B0E2EB16F104D8F00E9453158091E203A4
:102CE0009091E3032091E603D093AC022093AB02D2
:102CF0001092AA021092A902DC01ED91FC910190C0
:102D0000F081E02D60E00995EE24E394F12C8091B0
:102D1000E2039091E303F8016491DC01ED91FC91F1
:102D20000190F081E02D0995BFEFEB1AFB0A0F5FD0
:102D30001F4FC7CFDF91CF911F910F91FF90EF9061
:102D40000C945315E091F203F091F303908180917C
:102D5000F8038095892380838701C15008F438C027
:102D6000F80184912091E0033091E103232B29F0B5
:102D70000E94680E0F5F1F4FF0CF28E030E040E860
:102D8000E091EE03F091EF039091F603582F542356
:102D9000D9F05081952B9083E091F003F091F103ED
:102DA00090815091F703952B9083E091F003F0917F
:102DB000F10350819091F703909595239083469568
:102DC00021503109E9F6D6CF508190959523E3CF74
:102DD000DF91CF911F910F91FF90EF9008951F9376
:102DE000CF93DF93EC018D8D9E8D009721F1162FEF
:102DF00029A131E03093AC022093AB021092AA02D9
:102E00001092A902DC01ED91FC910190F081E02D7E
:102E100060E009958D8D9E8DDC01ED91FC91019016
:102E2000F081E02D612F09958D8D9E8DDF91CF91E1
:102E30001F910C945315ADA5BEA59C918BA98095AF
:102E400089238C938B8D9C8D892B31F0862FDF917C
:102E5000CF911F910C94680E28E030E080E8A9A57E
:102E6000BAA599A9462F4823C1F04C91942B9C9365
:102E7000ABA5BCA59C914AA9942B9C93ABA5BCA5E2
:102E80004C919AA9909594239C9386952150310951
:102E900031F7DF91CF911F9108954C919095942334
:102EA000E6CFDF92EF92FF920F931F93CF93DF93C2
:102EB0008091E2039091E303892B09F498C020915B
:102EC000FA033091FB034091FC035091FD0360E055
:102ED00074E284EF90E00E940A26205131094109F2
:102EE000510956954795379527952093B80065E089
:102EF0008EE99AE00E943A166091C903615085EC10
:102F000093E00E94EF162091CB033091CC03C901CE
:102F1000079697FD079633E0959587953A95E1F7E3
:102F20002091C9033091CA03829F8001839F100DB5
:102F3000929F100D1124C091E403D091E50380917C
:102F4000E2039091E3030C0F1D1F009709F48FC05B
:102F50002091E60331E03093AC022093AB02109253
:102F6000AA021092A902DC01ED91FC910190F0817E
:102F7000E02D60E40995EE24E394F12CDD24D39454
:102F80008091E2039091E3030C171D0709F446C0FA
:102F9000B0E2EB16F104D8F00E9453158091E203E1
:102FA0009091E3032091E603D092AC022093AB0210
:102FB0001092AA021092A902DC01ED91FC910190FD
:102FC000F081E02D60E40995EE24E394F12C8091EA
:102FD000E2039091E3036991DC01ED91FC91019092
:102FE000F081E02D0995BFEFEB1AFB0AC9CF809164
:102FF000E0039091E103892B31F0809103049091DB
:1030000004040E946F0EE091F403F091F5039081A7
:103010008091F90380958923808369CF0E9453159D
:103020008091E2039091E303892B09F461C0209120
:10303000FE033091FF03409100045091010460E0D1
:1030400074E284EF90E00E940A2620513109410980
:10305000510956954795379527952093B800DF91EC
:10306000CF911F910F91FF90EF90DF900895E09125
:10307000F203F091F30380819091F803892B808310
:103080000C171D0769F289912091E0033091E1034B
:10309000232B19F00E94680EF3CF28E030E040E8BF
:1030A000E091EE03F091EF039091F603582F542333
:1030B000D9F05081952B9083E091F003F091F103CA
:1030C00090815091F703952B9083E091F003F0915C
:1030D000F10350819091F703909595239083469545
:1030E00021503109E9F6CCCF508190959523E3CF5B
:1030F000E091F403F091F50380819091F903892B1D
:103100008083ADCF1F93CF93DF93EC01162F8D8D6E
:103110009E8D892BB1F12DA93EA94FA958AD60E034
:1031200074E284EF90E00E940A262051310941099F
:10313000510956954795379527952093B80066EA2B
:10314000111167EACE010E94EF168D8D9E8D892B9D
:1031500041F129AD3AAD4BAD5CAD60E074E284EF76
:1031600090E00E940A2620513109410951095695E3
:103170004795379527952093B800DF91CF911F9100
:1031800008958B8D9C8D892B21F08EAD9FAD0E9473
:103190006F0EEFA5F8A990818CA980958923808373
:1031A000CECFEFA5F8A980819CA9892B8083E5CF9C
:1031B00090E080E008952091CB033091CC03C901C9
:1031C000079697FD079623E0959587952A95E1F751
:1031D0002091C9033091CA03829FA001839F500DA3
:1031E000929F500D112470E060E08091E403909173
:1031F000E5030C949327FB0101900020E9F7319738
:10320000AF01461B570BDC01ED91FC910280F3816D
:10321000E02D0994CF93DF93EC010E94DB18E5ECDD
:10322000F3E081E0848B858B21E030E0338B228BCF
:10323000318B208B1586148617861686808FBE01EB
:10324000CF010E94FB1863E971E085EC93E00E94D6
:10325000FB18DF91CF910C9451170E94852785EDC3
:103260008093BC008091290290912A02A0912B02A8
:10327000B0912C020796A11DB11D23E0B695A7952C
:10328000979587952A95D1F72091BC0024FD03C01E
:103290001092720208954091290250912A02609181
:1032A0002B0270912C02452B462B472B69F300977C
:1032B000A105B10541F025E32A95F1F7000001973A
:1032C000A109B109E1CF809128020C94AD141F929D
:1032D0000F920FB60F9211242F933F934F935F934A
:1032E0006F937F938F939F93AF93BF93EF93FF93CE
:1032F0008DEA92E00E949206FF91EF91BF91AF910B
:103300009F918F917F916F915F914F913F912F91FD
:103310000F900FBE0F901F9018951F920F920FB62F
:103320000F9211242F938F939F93EF93FF93E0912C
:10333000BD02F091BE028081E091C302F091C4020F
:1033400082FD1BC090818091C6028F5F8F73209198
:10335000C702821741F0E091C602F0E0E355FD4F4D
:10336000958F8093C602FF91EF919F918F912F913E
:103370000F900FBE0F901F9018958081F4CF1F9271
:103380000F920FB60F9211242F933F938F939F9319
:10339000AF93BF938091A5029091A602A091A7023E
:1033A000B091A8023091980223E0230F2D3758F5F1
:1033B0000196A11DB11D209398028093A5029093C0
:1033C000A602A093A702B093A802809199029091BF
:1033D0009A02A0919B02B0919C020196A11DB11D81
:1033E0008093990290939A02A0939B02B0939C02BF
:1033F000BF91AF919F918F913F912F910F900FBEF1
:103400000F901F90189526E8230F0296A11DB11D5D
:10341000D2CF1F920F920FB60F9211242F933F938A
:103420004F935F936F937F938F939F93AF93BF93CC
:10343000EF93FF938091B900887F803609F44AC0EA
:10344000F0F5883209F4A7C018F5803109F49BC063
:10345000B8F4882309F4F9C0883009F494C0FF91C6
:10346000EF91BF91AF919F918F917F916F915F91FC
:103470004F913F912F910F900FBE0F901F90189575
:10348000883109F488C0803251F78093710214C0EA
:10349000803409F49DC040F48033B9F38833F9F6E1
:1034A0008093710285ECB0C0803509F485C0883501
:1034B00009F496C0883499F60E942F19D0CF883924
:1034C00009F48CC038F5883729F050F4883611F0AB
:1034D000803729F683E0809372021092700257C001
:1034E000883809F47BC0803919F0803809F0B7CFEB
:1034F00080917002803208F071C0E091700281E02A
:103500008E0F809370028091BB00F0E0E05BFD4F76
:1035100080833DC0803B39F0E0F4803A09F479C003
:10352000883A09F09CCF84E08093720210924F0297
:1035300010924E02E091A002F091A10209958091B3
:103540004E0281110FC081E080934E0210922E0234
:1035500009C0803C09F4A6CF883C09F4A3CF883B7E
:1035600009F07DCFE0914F0281E08E0F80934F02F2
:10357000F0E0E25DFD4F80818093BB0090914F02AF
:1035800080914E0229C0809197028093BB0085EC08
:103590008093BC0064CF9091960280919502981719
:1035A00058F5E091960281E08E0F80939602F0E04C
:1035B000EB58FD4F8081E9CFE091960281E08E0FBC
:1035C000809396028091BB00F0E0EB58FD4F808322
:1035D00090919602809195029817C8F285E8D8CF0D
:1035E000E091960281E08E0F809396028091BB005D
:1035F000F0E0EB58FD4F80838091740281115CCF25
:1036000081E08093730284EA8093BC00109272027E
:1036100026CF85EC8093BC001092720280917002DC
:10362000803230F4E0917002F0E0E05BFD4F1082F8
:103630006091700270E0E0919E02F0919F0280E53F
:1036400092E00995109270020ACF1092710234CF65
:103650001092B0021092AF0288EE93E0A0E0B0E0CA
:103660008093B1029093B202A093B302B093B402DC
:103670002DE331E03093AE022093AD0225EC30E033
:103680003093BA022093B90224EC30E03093BC02AC
:103690002093BB0220EC30E03093BE022093BD02A9
:1036A00021EC30E03093C0022093BF0222EC30E0E6
:1036B0003093C2022093C10226EC30E03093C40262
:1036C0002093C3021092C6021092C7021092C80241
:1036D0001092C9021092BC031092BB038093BD03E9
:1036E0009093BE03A093BF03B093C0038FE491E017
:1036F0009093BA038093B9031092C8031092C70342
:1037000020E830E03093CA032093C90380E490E0BE
:103710009093CC038093CB033093CE032093CD03BF
:103720009093D0038093CF031092DB031092D203C7
:103730001092D1031092D4031092D30381E08093AE
:10374000DA038093D9032FEF3FEF3093D803209310
:10375000D7033093D6032093D5038093DC031092D4
:10376000DD031092DF031092DE038BE691E090936D
:10377000C6038093C5031092E1031092E00389EB26
:1037800093E09093E3038093E2031092E503109299
:10379000E4038FEF8093E9038093EA038093EB03C4
:1037A0008093EC0381E18093ED0380E89AE1A6E049
:1037B000B0E08093FA039093FB03A093FC03B093D3
:1037C000FD0380EA96E8A1E0B0E08093FE039093C9
:1037D000FF03A0930004B093010480E580930304E9
:1037E0001092040410924C031092500310924F0355
:1037F0001092510381E691E090934B0380934A032A
:10380000E6E6F3E01082148213821582369683E096
:10381000E23AF807B9F784E091E09093AD03809322
:10382000AC0380E091E09093AF038093AE0384E01B
:103830008093B0038093B10388E091E09093AB0351
:103840008093AA038AE090E09093B3038093B2033D
:1038500084EF91E09093B5038093B4031092B80382
:103860001092B7031092A6031092A7031092A80318
:103870001092A9031092B6030895CF93DF93CDB7AA
:10388000DEB7EF970FB6F894DEBF0FBECDBF7894CA
:1038900084B5826084BD84B5816084BD85B5826055
:1038A00085BD85B5816085BD80916E008160809306
:1038B0006E0010928100809181008260809381006F
:1038C000809181008160809381008091800081607F
:1038D000809380008091B10084608093B1008091DA
:1038E000B00081608093B00080917A008460809302
:1038F0007A0080917A00826080937A0080917A00C9
:10390000816080937A0080917A00806880937A0049
:103910001092C100E091BD02F091BE0282E080836E
:10392000E091B902F091BA021082E091BB02F091ED
:10393000BC028FEC80831092C502E091C102F0912D
:10394000C20286E08083E091BF02F091C0028081D4
:1039500080618083E091BF02F091C0028081886025
:103960008083E091BF02F091C002808180688083F3
:10397000E091BF02F091C00280818F7D80838091B1
:10398000E4039091E503892B11F10E94DB1820914B
:10399000CB033091CC038091C9039091CA032132AB
:1039A00031050CF04BC0B9016052710977FF02C0BC
:1039B0006F5F7F4F759567958357910997FD0196C6
:1039C00000E210E023E730E044EE55E04AC02091E9
:1039D000CB033091CC03C901079697FD0796B3E05E
:1039E00095958795BA95E1F72091C9033091CA035F
:1039F000AC01429FC001439F900D529F900D112436
:103A00000E9460269093E5038093E403892B09F0DC
:103A1000BCCF04E81AE0F8016491662341F08DEA16
:103A200092E00E94B4060F5F1F4F892BA1F763E954
:103A300071E08DEA92E00E94FB18FFCFB90160545B
:103A4000710977FF02C06F5F7F4F7595679582554B
:103A5000910997FD019600E410E022E530E044EC86
:103A600057E0959587950E94591382E08093E7036C
:103A70008091E2039091E303892B09F415C18DE352
:103A80008093E6031092A3021092A2021092AA025F
:103A90001092A9020E948F1482E196E09093A102F5
:103AA0008093A00283E196E090939F0280939E0210
:103AB0008091ED0387FD1EC061E00E94A80761E0D0
:103AC0008091ED030E94760761E070E080E090E075
:103AD0000E940D0860E08091ED030E9476076AE085
:103AE00070E080E090E00E940D0861E08091ED03BD
:103AF0000E9476078091E2039091E303892B09F4F9
:103B000092C12091FA033091FB034091FC03509144
:103B1000FD0360E074E284EF90E00E940A262051E9
:103B200031094109510956954795379527952093B5
:103B3000B80064E08EEA95E00E943A166091CB03EB
:103B4000615085EC93E00E94EF1664E08AEA95E00C
:103B50000E943A168091E70360E1813009F064E148
:103B600085EC93E00E94EF1664E086EA95E00E94FF
:103B70003A168FE8809302048091C9039091CA039A
:103B80008038910509F068C18091CB039091CC03F6
:103B90008034910509F070C18091E703813009F00C
:103BA00059C18FE98093020412E16AED85EC93E03C
:103BB0000E94EF16612F85EC93E00E94EF1661E8FA
:103BC00085EC93E00E94EF166091020485EC93E08F
:103BD0000E94EF1669ED85EC93E00E94EF1680914C
:103BE000E70362E2813009F061EF85EC93E00E9427
:103BF000EF1666E080EA95E00E943A168091E203B3
:103C00009091E303892B09F43BC12091FE0330918D
:103C1000FF03409100045091010460E074E284EFDE
:103C200090E00E940A262051310941095109569518
:103C30004795379527952093B8000E94511764E661
:103C400070E080E090E00E940D081092A40261E014
:103C50008DE00E94A80761E08CE00E94A80761E067
:103C60008DE00E94760761E08CE00E947607AE014D
:103C70004F5F5F4F58AB4FA78091A402813009F48A
:103C800077C208F407C1823009F480C2833009F496
:103C90006CC480E090E0892B79F30E947E06882333
:103CA00031F30E940000E3CF61E08091EB030E94BA
:103CB000A80761E08091EC030E94A8078091EB03C4
:103CC000082E000C990BFC01E053FA4FE491F0E050
:103CD000EE0FFF1FEA53FA4F259134913093F3030F
:103CE0002093F203FC01EE54FA4FE491E093F803C1
:103CF0008091EC03082E000C990BFC01E053FA4F65
:103D0000E491F0E0EE0FFF1FEA53FA4FA591B49152
:103D1000B093F503A093F403FC01EE54FA4FE49141
:103D2000E093F9038C91E82BEC938091E003909160
:103D3000E103892B09F434C01FB7F89480919D02E8
:103D4000811127C0EAEDF5E08491ECEBF5E0949168
:103D5000E82FF0E0EE0FFF1FEA56FA4FA591B4915D
:103D6000EC91E92321F461E08AE00E94760761E0AA
:103D70008AE00E94A8078CB580618CBD8CB58064F8
:103D80008CBD61E08DE00E94A80761E08BE00E949D
:103D9000A80780919D028F5F80939D021FBF88CEF0
:103DA00061E08091E9030E94A80761E08091EA0345
:103DB0000E94A8078091E903082E000C990BFC01D2
:103DC000E053FA4FE491F0E0EE0FFF1FEA53FA4F91
:103DD000259134913093EF032093EE03FC01EE54D0
:103DE000FA4FE491E093F6038091EA03082E000C69
:103DF000990BFC01E053FA4FE491F0E0EE0FFF1F46
:103E0000EA53FA4FA591B491B093F103A093F00354
:103E1000FC01EE54FA4FE491E093F7038C91E095A6
:103E2000E823EC9345CE8091E0039091E103892B48
:103E300031F080910304909104040E946F0EE09190
:103E4000F403F091F50390818091F9038095892323
:103E500080836FCE8FECA6CE8036910569F4809179
:103E6000CB039091CC03409739F48091E7038130E4
:103E700029F480E18093020412E097CE8FEAFACF12
:103E8000E091F403F091F50380819091F903892B7F
:103E90008083D3CE86E991E00E940A1981E0809365
:103EA000B6038FB7F8944091A5025091A602609195
:103EB000A7027091A8028FBF8091A6039091A703DB
:103EC000A091A803B091A903481B590B6A0B7B0B67
:103ED0008091B2039091B303B0E0A0E084179507FE
:103EE000A607B70708F041C110E08091B00318178A
:103EF00060F4E091AC03F091AD03E10FF11D62E0DD
:103F000080810E94A8071F5FF0CF912C8091B103A0
:103F1000981608F063C0E92CF12CE091AE03F09103
:103F2000AF03EE0DFF1D61E080810E94A807E091C4
:103F3000AE03F091AF03EE0DFF1D60E080810E94A3
:103F4000760781E090E0A0E0B0E0092C04C0880F83
:103F5000991FAA1FBB1F0A94D2F75C016C01C09481
:103F6000D094812C8091B003881608F5082D10E0BC
:103F7000E091AC03F091AD03E00FF11F80810E944E
:103F80004A070C5F1F4F000F111FF801E65BFC4F43
:103F9000892B41F4808191818A299B299183808397
:103FA0008394E0CF808191818C219D21F7CFE09196
:103FB000AE03F091AF03EE0DFF1D61E080810E9422
:103FC00076078091AE039091AF03E80EF91E60E092
:103FD000D7018C910E94A807939498CF2AE4E22EEF
:103FE00023E0F22E6701F601878D90A1892B31F431
:103FF000148E4FEF5FEF568F458F11A256E0C50E1E
:10400000D11C66E8C61663E0D60669F7B12C96E0C7
:10401000992E8091B003B81608F050C0A12C0B2D3A
:1040200010E0000F111F0E5A1C4F2091B103A21671
:1040300008F042C0D8016D917C910A2C02C076959F
:1040400067950A94E2F7B29E900111242A0D311D62
:10405000EAE4F3E080E0458D568D2417350709F436
:10406000B3C28F5F36968A30B1F760FF23C0EAE4AF
:10407000F3E090E080E0448D411117C0E091AA0385
:10408000F091AB03E20FF31F4081989EF001999EDF
:10409000F00D1124E65BFC4F448F368F258F10A264
:1040A000178E61E00E94A20505C0019636968A30FF
:1040B000910509F7A394B9CFB394ABCF80E0F70192
:1040C00091A19111892FF6E0EF0EF11CCE14DF04BF
:1040D000B1F79FB7F8944091A5025091A602609164
:1040E000A7027091A8029FBF4093A6035093A70315
:1040F0006093A8037093A9038823B9F180916B039F
:10410000882399F10091690310916A030130110528
:1041100061F5E0906603EE2009F4BBCD0E94DB1848
:10412000FF24F394F092D903F092DA031093D803AA
:104130000093D7031093D6030093D5031092D203B4
:104140001092D1031092D4031092D303F092DD03A6
:104150006E2D85EC93E00E94AD100E94511721E472
:10416000E21297CDF092A40294CD1092B60391CDB5
:104170008FEA91E00E940A1964E670E080E090E026
:104180000E940D0882E08093A40283CD4DB75EB7F4
:104190005BAF4AAF8DB79EB78A5691090FB6F894B8
:1041A0009EBF0FBE8DBFADB7BEB711965D01EDB717
:1041B000FEB7FDAFECAF83E088A78DE189A71AA613
:1041C000BEA7ADA7415B51090FB6F8945EBF0FBE05
:1041D0004DBFE654F10918A219A21AA21BA287E446
:1041E00090E09DA38CA3FFA3EEA3DF011D928A950F
:1041F000E9F7A1EDEA2EA1E0FA2EBEEBCB2EB1E05D
:10420000DB2EF70182918F010E94FA0B8F3F09F498
:10421000DDC1F1E00E3B1F0709F048C06E0190E2DE
:10422000C90ED11C24E042E050E060E070E0C6011D
:104230000E948D0B29E043E150E060E070E0C60190
:104240000E948D0BA2E1EA0EF11C912C50E040E09F
:104250008DE2882E7C2C6D2C849E6001859ED00C76
:104260001124D8018D918D010E94FA0BA601480FEF
:10427000511D87FD5A95B1E09B121AC070E060E0B5
:104280002BE0872D962D0E948D0B912C50E040E065
:10429000E016F10609F7992039F070E060E026E0B9
:1042A000CE0180960E948D0B81E0B5C17801A9CF27
:1042B00099249394EDCF412F50E070E060E028E026
:1042C000CE0180960E948D0B1027CEC106301105BD
:1042D00011F405E010E0E12C6EEF662E600EC801CF
:1042E00096958795B1E08B27E82FE170DE2EEC14D0
:1042F00018F00250110989C3F02E542C5E1881E089
:10430000F5E0FF1508F480E0752CD81201C07E2C72
:10431000472D6F2DCE0140960E946E0881112DC051
:1043200089A99AA9ABA9BCA988169906AA06BB06B1
:1043300020F5D501C40153E0B695A79597958795CB
:104340005A95D1F7820D931DDC012C9130E0C40108
:10435000809590958770992702C0359527958A9505
:10436000E2F72170472D6F2DCE0148960E94AD09CE
:10437000BFEF8B1A9B0AAB0ABB0AFA946F10BFCF30
:10438000E394B5CF402F60E0CE0148960E946E08BE
:10439000882EBB24B394AA24A394A11610F00F5F17
:1043A00058C3402F6A2DCE0148960E946E0888118E
:1043B00015C0B39495E0B91208C0A3E0CA0ED11C91
:1043C000E11CF11CA394882EE8CFB5E0BB15D0F713
:1043D000EFEFCE1ADE0AEE0AFE0AF4CFBB24B39446
:1043E000F1CF40E0602FCE0148960E946E08882EE3
:1043F000BB24B394AA24A394A11610F00F5F2DC37D
:104400004A2D602FCE0148960E946E08881115C073
:10441000B394F5E0BF1208C023E0C20ED11CE11C2A
:10442000F11CA394882EE8CF45E04B15D0F75FEF41
:10443000C51AD50AE50AF50AF4CFBB24B394F1CF27
:10444000482D602FCE0148960E946E08782E0023DA
:1044500031F1882021F149A98FEF800F8DAB682FB2
:10446000CE0148960E946E088EAF49A9602FCE01FA
:1044700048960E946E088FAF482D6DA9CE014896D0
:104480000E946E089EAD79120AC0AFAD7A1207C0C5
:10449000781205C0B3E0CB0ED11CE11CF11CC201A7
:1044A000880F991F97702C014728AA0CBB1CE7E0C6
:1044B000BE22402F682DCE0148960E946E08A82A81
:1044C0000A30E0F0FDE54F16510429F020ED4216C8
:1044D00025E0520629F448E2C40ED11CE11CF11C6F
:1044E0005DE5A516B10429F060EDA61665E0B606F7
:1044F00029F488E2C80ED11CE11CF11C772019F0C8
:104500009FEF291A390A0F5F011708F499CF839496
:10451000A9A9AF5FA9ABA9C200E0B12CA12C512C75
:10452000412CF2CFAAE0CA0ED11CE11CF11C481BA1
:10453000590B280F391FB1C24FEFC41AD40A16C342
:104540006394FCC27394EBC20E9451178AAD9BAD79
:104550000FB6F8949EBF0FBE8DBF60ED77E080E090
:1045600090E00E940D0883E00ECE82ED91E00E9463
:104570000A1960E08DE00E94760761E08CE00E94FD
:10458000760768EE73E080E090E00E940D088DED04
:1045900091E00E940A1961E08DE00E94760760E0D8
:1045A0008CE00E94760768EE73E080E090E00E9465
:1045B0000D0861E08DE00E94760761E08CE00E94CA
:1045C00076071092A40265CB61706CCD24E044E0C4
:1045D00050E060E070E0CE0180960E948D0B28E0F4
:1045E00043E150E060E070E0CE0180960E948D0BC8
:1045F00001ED11E0F60141916F01042E000C550B05
:10460000660B770B28E0CE0180960E948D0B0C156F
:104610001D0581F782E08BA788A199A1AAA1BBA162
:1046200028EB31E040E050E0281B390B4A0B5B0BD4
:10463000253031054105510520F024E030E040E00F
:1046400050E040E050E0BA01CE0180960E948D0B10
:1046500028A12195277040E050E0BA01CE01809654
:104660000E948D0B1CEE0DEF88A199A1AAA1BBA100
:10467000883B9140A105B10508F41DCE4DE150E005
:1046800060E070E0488F598F6A8F7B8F2AE630E0B8
:104690003D8F2C8FBF8EAE8E8AE6D501E82F1D92FE
:1046A000EA95E9F7ADB7BEB7AA56B1090FB6F894C7
:1046B000BEBF0FBEADBFEDB7FEB73196488B598B6D
:1046C0006A8B7B8B3D8B2C8BFF8BEE8BDF011D92DE
:1046D0008A95E9F710E0812F80958170082F212FAE
:1046E00046E0BE01605F7F4FCE0148960E94E2091E
:1046F00026E0412FBE01605F7F4FCE0148960E94A9
:10470000E2091F5F1D3139F723E043E0BE01605F1E
:104710007F4FCE0148960E94FF0A23E049E1BE0187
:10472000605F7F4FCE0148960E94FF0A29E143E077
:10473000BE01605F7F4FCE0148960E94FF0A8DB692
:104740009EB614E1FEEFEF2EFF24FA94EEEFCE2E8C
:10475000DD24DA94AA24BB24AE18BF085E2D4F2DA9
:10476000F7FE02C05A2D4B2D9601D7FE04C022271A
:1047700033272C193D09852F942F821793070CF4AA
:10478000C90101E0019709F400E046E14C0D212F39
:10479000BE01605F7F4FCE0148960E94E209BFEFE5
:1047A000CB1ADB0AE3E0CE16D104C1F6FFEFEF1A15
:1047B000FF0A1F5F23E0E216F10441F60FB6F894FA
:1047C0009EBE0FBE8DBE20E041E0BE01605F7F4F08
:1047D000CE0148960E94FA094DB75EB75AAB49AB75
:1047E0004CA15DA18DB79EB7841B950B0FB6F894B5
:1047F0009EBF0FBE8DBF0DB71EB70F5F1F4F70E07E
:1048000060E0C8010E9493278FE0AFA5B8A91D9270
:104810008A95E9F781E08F876FE0762E21E030E01E
:104820007DE1E72EFF24F394FE01319640E049013B
:104830009924A08167E070E090E080E0B0E06C0136
:10484000CC0CDD1C880F892F881F990B91958E9DAC
:1048500050018F9DB00C9E9DB00C1124AC24BD2442
:104860006401062E02C0D594C7940A94E2F751E081
:10487000C522DD24CA9EC001CB9E900DDA9E900D0C
:1048800011248A259B2561507109C8F681934E3009
:1048900029F0DF011197908189278C934F5F4F306A
:1048A00041F6B901660F771F220F232F221F330B0A
:1048B00031952E9DC0012F9D900D3E9D900D112490
:1048C0009B01282739277A947110AECF8EA19FA122
:1048D0009FAB8EABC796F8012EA93FA9D9014D9188
:1048E0009D0141938A179B07C9F72801B7E34B0E37
:1048F000511C3801E5E46E0E711C1801FFE02F0E0B
:10490000311CAEA9BFA98D90BFABAEABF80187A992
:104910008826D20111968C9111978D936A167B0689
:10492000C9F7D3011C92D801FE0131965F01912C89
:10493000F501E1905F0147E050E090E080E0F12C6C
:104940006C01CC0CDD1C880F892F881F990B919569
:10495000EDE1F1E08E9FB0018F9F700D9E9F700D75
:1049600011246C257D256401042E02C0D594C794C2
:104970000A94E2F7F1E0CF22DD24CE9CC001CF9C67
:10498000900DDE9C900D11248627972741505109E8
:10499000B8F6D7966C91D7978627D7968C93D797EA
:1049A00011962A163B0621F64EA95FA92417350752
:1049B00009F0A7CF4CA15DA1B8018EA19FA10E94D3
:1049C0008A2787E392E0A0E0B0E088A399A3AAA396
:1049D000BBA389A99AA90FB6F8949EBF0FBE8DBF3D
:1049E00088A199A1AAA1BBA189AB9AABABABBCAB87
:1049F0002EA03FA0C88CAC2DA150BB0B8D01812CEB
:104A0000912C540144244A944C0C101611060CF4B9
:104A10005DCC612C8FEF9FEFAFEFBFE78EAB9FAB0D
:104A2000A8AFB9AF912C292D41E0BE01605F7F4F47
:104A3000CE0148960E94FA09492DBE01605F7F4F62
:104A4000CE0148960E949C08188D00E0C12CD12C04
:104A50007601011708F496CC00E0011708F4C1CCE8
:104A60006FEF69AB812C312C212C811608F454CDC9
:104A7000119FC0011124B4E1B29DB001B39D700D2E
:104A80001124E9E0E89FA001E99F500D1124FBE00B
:104A9000F89F9001F99F300D11246417750708F4F1
:104AA00041CD2617370708F43DCD0D2C000CEE083C
:104AB000FF088EA99FA9A8ADB9ADC816D906EA0608
:104AC000FB062CF4CEAADFAAE8AEF9AE692C492D7C
:104AD000BE01605F7F4FCE0148960E949C08939470
:104AE00098E09912A0CF6CA6262D41E0BE01605F30
:104AF0007F4FCE0148960E94FA09462DBE01605FA5
:104B00007F4FCE0148960E949C08ACADBDAD0FB65C
:104B1000F894BEBF0FBEADBF0E94DB18712C89A5F3
:104B2000781608F011CD072D10E00F5F1F4F000F12
:104B3000111F4801B2E08B0E911C612C89A56816EB
:104B400008F000CD472D662DCE0188960E943F08C3
:104B5000882309F4F5CCE62CF12CEE0CFF1C670140
:104B6000E0E2CE0ED11CF2E2EF0EF11CCE14DF0417
:104B700009F4E6CC5801A814B9040CF0DDCC21E00E
:104B800030E0A501B60185EC93E00E94B80D2FEF4F
:104B9000A21AB20AF0CF8BE691E09093C6038093FD
:104BA000C5038091E4039091E503009711F00C9404
:104BB000FC260895DB018F939F930E943226BF91BC
:104BC000AF91A29F800D911DA39F900DB29F900D5C
:104BD00011240895991B79E004C0991F961708F0D5
:104BE000961B881F7A95C9F78095089597FB072E25
:104BF00016F4009407D077FD09D00E943D2607FCEB
:104C000005D03EF4909581959F4F089570956195DC
:104C10007F4F0895A1E21A2EAA1BBB1BFD010DC0F8
:104C2000AA1FBB1FEE1FFF1FA217B307E407F5075C
:104C300020F0A21BB30BE40BF50B661F771F881F38
:104C4000991F1A9469F760957095809590959B01CE
:104C5000AC01BD01CF010895EE0FFF1F0590F49147
:104C6000E02D09940E945126A59F900DB49F900DB0
:104C7000A49F800D911D11240895AA1BBB1B51E117
:104C800007C0AA1FBB1FA617B70710F0A61BB70BBC
:104C9000881F991F5A95A9F780959095BC01CD0161
:104CA0000895A29FB001B39FC001A39F700D811D05
:104CB0001124911DB29F700D811D1124911D089525
:104CC0000F931F93CF93DF938230910510F482E00E
:104CD00090E0E0910704F091080430E020E0B0E0BB
:104CE000A0E0309799F42115310509F44AC0281B3A
:104CF000390B24303105D8F58A819B816115710506
:104D000089F1FB0193838283FE0111C040815181AF
:104D10000281138148175907E0F04817590799F4A1
:104D2000109761F012960C93129713961C9332967B
:104D3000CF01DF91CF911F910F9108950093070448
:104D400010930804F4CF2115310551F04217530791
:104D500038F0A901DB019A01BD01DF01F801C1CFE3
:104D6000EF01F9CF9093080480930704CDCFFE01A3
:104D7000E20FF31F819391932250310939832883E5
:104D8000D7CF2091050430910604232B41F42091C4
:104D90001A0130911B0130930604209305042091E1
:104DA0001801309119012115310541F42DB73EB795
:104DB00040911C0150911D01241B350BE09105040D
:104DC000F0910604E217F307A0F42E1B3F0B2817FF
:104DD000390778F0AC014E5F5F4F2417350748F074
:104DE0004E0F5F1F509306044093050481939193E7
:104DF0009FCFF0E0E0E09CCFCF93DF930097E9F006
:104E0000FC01329713821282A0910704B09108042A
:104E1000ED0130E020E01097A1F420813181820F74
:104E2000931F20910504309106042817390709F0D3
:104E300061C0F0930604E0930504DF91CF910895DB
:104E4000EA01CE17DF07E8F54A815B819E01411533
:104E50005105B1F7E901FB83EA8349915991C40FE8
:104E6000D51FEC17FD0761F4808191810296840FB4
:104E7000951FE90199838883828193819B838A832B
:104E8000F0E0E0E012968D919C9113970097B9F5B0
:104E90002D913C911197CD010296820F931F209185
:104EA0000504309106042817390739F6309751F573
:104EB0001092080410920704B0930604A09305040E
:104EC000BCCFD383C28340815181840F951FC81703
:104ED000D90761F44E5F5F4F88819981480F591F50
:104EE000518340838A819B8193838283211531057D
:104EF00009F0B0CFF0930804E09307049ECFFD01C2
:104F0000DC01C0CF13821282D7CF81E090E0F89409
:104F10000C949A27FB01DC0102C001900D924150D4
:104F20005040D8F70895DC0101C06D9341505040C6
:104F3000E0F7089515E0C3E5D5E004C0FE010E9446
:0E4F40002C262196C435D107C9F7F894FFCF6F
:104F4E00050403020908070631323341343536426F
:104F5E00373839432A30234400000904800024FFE7
:104F6E00FFFF2526FFFFFFFF2728FF292A2BFFFF24
:104F7E00FFFFFFFFFFFFFFFF2C00000000B4061431
:104F8E000641060107720650066406000000002462
:104F9E0015F714D8187E05F014DD14CE1400000099
:104FAE0000E407A407730700000000AD101406D834
:104FBE00186714B80D7E0552132A1346133A13BA06
:104FCE00137E05730E8218280D710D73125612DEA4
:104FDE00117F110D0A00656E74657220274127201E
:104FEE00746F2067657420515220636F6465007082
:104FFE006C6561736520776169742E2E2E00456D88
:10500E006265646465642070726F6A656374203AC9
:10501E0044006F70656E696E672E2E2E00636C6F86
:08502E0073696E672E2E2E003F
:00000001FF
